:020000040800F2
:10000000E8050020310200081F1800081718000832
:100010001B1800080D0600084D1C00080000000019
:10002000000000000000000000000000231800088D
:10003000110600080000000021180008251800081B
:100040005502000855020008550200085502000834
:100050005502000855020008550200085502000824
:100060005502000855020008550200085502000814
:100070005502000855020008550200085502000804
:1000800055020008550200085502000855020008F4
:1000900055020008550200085502000855020008E4
:1000A00055020008550200085502000855020008D4
:1000B00055020008550200085502000855020008C4
:1000C00055020008550200085502000855020008B4
:1000D000550200083D1C00085502000855020008A2
:1000E0005502000855020008550200085502000894
:1000F0005502000855020008550200085502000884
:100100005502000855020008550200085502000873
:100110005502000855020008550200085502000863
:100120005502000855020008550200085502000853
:100130005502000855020008550200085502000843
:100140005502000855020008550200085502000833
:100150005502000855020008550200085502000823
:100160005502000855020008550200085502000813
:100170005502000855020008550200080000000062
:10018000550200085502000800F002F800F041F89E
:100190000AA090E8000C82448344AAF10107DA45E2
:1001A00001D100F036F8AFF2090EBAE80F0013F0F3
:1001B000010F18BFFB1A43F001031847D42F0000AA
:1001C000F42F0000103A24BF78C878C1FAD852073B
:1001D00024BF30C830C144BF04680C6070470000C1
:1001E0000023002400250026103A28BF78C1FBD840
:1001F000520728BF30C148BF0B607047782900F014
:10020000F580002070471FB502F09CFF1FBD10B5A0
:1002100010BD00F0C9F91146FFF7F5FF01F000FE2F
:1002200000F0E7F903B4FFF7F2FF03BC01F02CFD87
:100230000C48016841F4700101600B4880470B488D
:100240000047FEE7FEE7FEE7FEE7FEE7FEE7FEE724
:10025000FEE7FEE7FEE7000005480649044A064BB4
:100260007047000088ED00E02D18000889010008A3
:10027000E8010020E8050020E8010020704753EA6B
:10028000020C00F069802DE9F04B4FF00006002BC6
:100290001FBFB3FA83F503FA05F424FA05F65E40AE
:1002A00012BF1643B2FA82F502FA05F4C5F1200531
:1002B0001EBF22FA05FC44EA0C04203556EA044C21
:1002C0004FEA144418BF641C4FF000084FF00009B7
:1002D000904271EB030C39D3002919BFB1FA81F7B1
:1002E00001FA07F6B0FA80F700FA07F6C7F120071F
:1002F0001EBF20FA07FC46EA0C062037B6FBF4FCCA
:10030000A7EB0507103F07F01F0BCBF120060CFAF7
:100310000BFB2CFA06F644BFB3460026202FA4BFE1
:100320005E464FF0000B5BEA060C08BF4FF0010B76
:1003300019EB0B09ABFB027C48EB0608C01B06FB64
:1003400002CC0BFB03CC71EB0C01C1E70B46024660
:1003500041464846BDE8F08B13B54FF000004FF022
:100360000001AFF30080BDE81C4070470FB40449A2
:1003700010B503AA029800F0E9F810BC5DF814FB70
:10038000080000202DE9F0410E46044600202062BE
:100390002046E168884730B3252805D0D4E90121FB
:1003A0009047206A401CF2E7E16820460027884712
:1003B000050018D0A5F14100192802D820354FF4C6
:1003C00000673246294620462760FFF717FF40B1F5
:1003D000012804D0F61D26F007060836D8E7361D9A
:1003E000D6E72846DAE7206ABDE8F08170B5044612
:1003F0000D4621461068AFF300802188090502D51B
:100400000F4A7A4402E00E4A7A440E32002104F187
:10041000240305E000F00F060009965D5E54491CB8
:100420000028F7D120780023000704D5702D02D0D2
:1004300009B1022311322046BDE8704000F02DB80A
:10044000602D00004FF0000200B51346944696461A
:10045000203922BFA0E80C50A0E80C50B1F12001D7
:10046000BFF4F7AF090728BFA0E80C5048BF0CC085
:100470005DF804EB890028BF40F8042B08BF7047E3
:1004800048BF20F8022B11F0804F18BF00F8012B55
:10049000704770477047704770472DE9F0470D4629
:1004A00099469246044600F124080168880604D55E
:1004B000E06921F01001216000E00120A84201DD87
:1004C000471B00E00027A1697A1902EB0900081A0E
:1004D000A0612078C00602D42046AFF30080002639
:1004E00008E0D4E901211AF806009047206A401C70
:1004F000761C20624E45F4DB2078C0060AD52046E3
:10050000AFF3008006E0D4E9012130209047206A53
:10051000401C2062381EA7F10107F4DC07E0D4E993
:10052000012118F805009047206A401C2062281E0F
:10053000A5F10105F3DC2046AFF30080207800062A
:1005400002D50220BDE8F0870120FBE7074B70B51C
:100550000D467B4400F011F80446284600F020F8D0
:1005600010B14FF0FF3070BD204670BD9F170000E6
:1005700001694A1C02610878704700B58FB0CDE967
:1005800001310021059105497944CDE90310114657
:100590006846FFF7F7FE0FB000BD0000E5FFFFFF64
:1005A000007B00F080007047754600F02BF8AE46E7
:1005B00005006946534620F00700854618B020B56F
:1005C000FFF74AFEBDE820404FF000064FF000075D
:1005D0004FF000084FF0000B21F00701AC46ACE8EB
:1005E000C009ACE8C009ACE8C009ACE8C0098D4658
:1005F000704710B50446AFF300802046BDE81040B8
:10060000FFF710BE004870478401002000BFFEE7DE
:100610007047000070B504461D460023B5F5804FB5
:1006200013D154F822300C480340D1E9000640EAC7
:1006300006108E6840EA06208E8940EA06408E69E0
:100640003043034344F8223003E06FF0704044F835
:100650002200002070BD00000000F0CF10B503465E
:100660000022086853F8202012480240D1E9010412
:100670002043CC6820430C6920434C6920438C699B
:100680002043CC6920430C6A20434C6A20438C6A87
:100690002043CC6A2043CC6B20430C6B20430243A5
:1006A0008868082801D142F04002086843F82020F9
:1006B000002010BD8000F0FF30B503460024501C20
:1006C00053F8204004F04044D1E9000540EA051009
:1006D0008D6840EA05208D8940EA0545088A401E5C
:1006E00045EA0055087D801E45EA00608D69284373
:1006F0000443501C43F82040002030BD70B5044630
:10070000A56D00F073F9064694F83500022808D06C
:100710008020606500BF002084F8340000BF012005
:1007200070BD2068006820F016002168086020680D
:10073000406920F0800021684861206C08B9A06CF5
:1007400028B12068006820F008002168086020684F
:10075000006820F00100216808600FE000F046F911
:10076000801B05280AD92020606500BF002084F87E
:10077000340000BF032084F83500D1E7206800680A
:1007800000F001000028E9D194F85C103F20884077
:10079000A86000BF002084F8340000BF012084F866
:1007A00035000020BCE7014691F83500022803D04F
:1007B0008020486501207047052081F835000868D1
:1007C000006820F001000A6810600020F3E70000D4
:1007D000F8B502460B460025002400200021DEE08B
:1007E000012606FA01F51E6806EA0504AC4275D139
:1007F0001E7906F00306012E04D01E7906F00306CA
:10080000022E13D190684F000326BE40B0434F0024
:10081000DE68BE4030439060506801268E40B04391
:100820001E79C6F300168E40304350601E7906F0E4
:100830000306032E09D0D0684F000326BE40B04304
:100840004F009E68BE403043D0601E7906F003061C
:10085000022E13D1CF0802F1200656F827004E07CA
:10086000F70E0F26BE40B0434F07FF0E1E69BE4075
:100870003043CF0802F1200646F8270010684F00E9
:100880000326BE40B0431E7906F003064F00BE406B
:10089000304310605E6806F08056B6F1805F7DD10F
:1008A00000BF00260096404E366846F480463E4F14
:1008B0003E603E46366806F48046009600BF00BFA4
:1008C0003A4E8F0856F827008E07370F0F26BE4086
:1008D000B043374EB24202D1002624E05EE0354EEE
:1008E000B24201D101261EE0334EB24201D10226AE
:1008F00019E0324EB24201D1032614E0304EB2422A
:1009000001D104260FE02F4EB24201D105260AE0A4
:100910002D4EB24201D1062605E02C4EB24201D145
:10092000072600E008268F073F0FBE4030431F4ECA
:100930008F0846F82700264E3068A0435E6806F40C
:100940008036B6F5803F00D12043214E3060361D01
:100950003068A0435E6806F40036B6F5003F00D16B
:1009600020431B4E361D3060361D3068A0435E6844
:1009700006F48016B6F5801F00D12043144E0836C9
:100980003060361D3068A0435E6806F40016B6F588
:10099000001F00D120430E4E0C363060491C102938
:1009A000FFF41EAFF8BD0000443802400838014093
:1009B000000002400004024000080240000C024017
:1009C000001002400014024000180240001C0240C7
:1009D000003C01400AB1816101E00B048361704772
:1009E00001480068000C7047002004E001480068DE
:1009F0007047000010000020034800680349097890
:100A000008440149086070471000002018000020C9
:100A100010B50A48006840F40070084908600846AC
:100A2000006840F480600860052000F07FF80F2027
:100A300000F006F800F02AF8002010BD003C02404B
:100A400070B504460E4800784FF47A71B1FBF0F0AF
:100A50000C490968B1FBF0F5284600F087FC08B1A5
:100A6000012070BD102C07D200222146501E00F03C
:100A70001EF80548046001E00120F2E70020F0E7DD
:100A800018000020000000201400002070470146DC
:100A90000846002809DB00F01F0301229A404309A1
:100AA0009B0003F1E023C3F8002100BF70472DE94C
:100AB000F05F80460D461646002701F0C9F807464C
:100AC00039462A46334601F00700C0F1070ABAF159
:100AD000040F02D94FF0040A01E0C0F1070AD14621
:100AE00000F1040ABAF1070F02D24FF0000A01E048
:100AF000A0F1030AD4464FF0010A0AFA09FAAAF152
:100B0000010A0AEA020A0AFA0CFA4FF0010B0BFA80
:100B10000CFBABF1010B0BEA030B4AEA0B04214679
:100B2000404601F09DF8BDE8F09F000000BF00F0D6
:100B30000702064B19684FF6FF031940044B0B439D
:100B400043EA0221014B196000BF70470CED00E041
:100B50000000FA0570B504460D460CB9012070BDC1
:100B60005848006800F00700A84209D255490D70A6
:100B70000846006800F00700A84201D00120EEE717
:100B8000207800F0020002281DD1207800F0040037
:100B9000042805D14C48006840F4E0504A490860F8
:100BA000207800F00800082805D14748006840F484
:100BB0006040454908604448006820F0F000A168A2
:100BC000084341490860207800F00100A8B360683C
:100BD000012807D13C4808380068C0F34040B8B944
:100BE0000120BCE76068022802D06068032807D1B2
:100BF000354808380068C0F3406048B90120AEE7C6
:100C0000314808380068C0F3400008B90120A6E761
:100C10002D48006820F00300616808432A490860F5
:100C2000FFF7E4FE064609E0FFF7E0FE801B41F215
:100C30008831884202D9032091E707E02248006802
:100C400000F00C006168B0EB810FEDD11D48006829
:100C500000F00700A84209D91A490D70084600683B
:100C600000F00700A84201D0012078E7207800F0CA
:100C70000400042807D11448006820F4E050E1681B
:100C8000084311490860207800F00800082808D1BE
:100C90000D48006820F46040216940EAC1000A491B
:100CA000086000F03FF808490968C1F30311074ADA
:100CB000515CC8400649086006480068FFF7C0FE5E
:100CC00000204CE7003C0240083802404E3100084A
:100CD0000000002014000020014800687047000058
:100CE0000000002000B5FFF7F7FF04490968C1F3D1
:100CF0008221034A515CC84000BD00000838024010
:100D00005E31000800B5FFF7E7FF04490968C1F349
:100D10004231034A515CC84000BD0000083802401F
:100D20005E3100082DE9F047002400250026A14689
:100D30002548006800F00C0020B1042805D00828E0
:100D40003AD105E0DFF8849039E0DFF8849036E0AE
:100D50001D48001F006800F03F041B48001F00688A
:100D600000F4800078B11A481749091F0968C1F3D7
:100D70008811A0FB01700146224600233846FFF788
:100D80007EFA05460EE011480F49091F0968C1F3B4
:100D90008811A0FB01700146224600233846FFF768
:100DA0006EFA05460848001F0068C0F30140401C69
:100DB0004600B5FBF6F902E0DFF8109000BF00BF77
:100DC0004846BDE8F0870000083802400024F400DF
:100DD00000127A00F8B504460CB90120F8BD20785D
:100DE00000F00100002874D0F948006800F00C0001
:100DF00004280DD0F648006800F00C00082813D134
:100E0000F348001F006800F48000B0F5800F0BD19C
:100E1000EF4808380068C0F34040002859D06068A7
:100E2000002856D10120D9E700BF6068B0F5803FA7
:100E300008D1E7480838006840F48030E4490839B0
:100E400008601EE06068B0F5A02F0DD1E0480838BA
:100E5000006840F48020DE490839086008460068D0
:100E600040F4803008600CE0D9480838006820F46D
:100E70008030D749083908600846006820F480208F
:100E8000086000BF606890B1FFF7B0FD054606E05E
:100E9000FFF7ACFD401B642801D903209EE7CC4836
:100EA00008380068C0F340400028F1D011E0FFF797
:100EB0009DFD054606E0FFF799FD401B642801D91A
:100EC00003208BE7C24808380068C0F34040002880
:100ED000F1D1207800F0020002285FD1BC48006800
:100EE00000F00C0058B1BA48006800F00C00082867
:100EF0001CD1B748001F006800F48000B0B9B448A6
:100F000008380068C0F3400020B1E068012801D033
:100F1000012063E7AE480838006820F0F800216936
:100F200040EAC100AA490839086037E0E06800B328
:100F30000120A8490860FFF759FD054606E0FFF7C4
:100F400055FD401B022801D9032047E7A048083877
:100F50000068C0F340000028F1D09D4808380068C0
:100F600020F0F800216940EAC10099490839086079
:100F700014E0002097490860FFF738FD054606E0B9
:100F8000FFF734FD401B022801D9032026E79048D3
:100F900008380068C0F340000028F1D1207800F044
:100FA000080008282CD16069A8B101208A4908608E
:100FB000FFF71CFD054606E0FFF718FD401B022861
:100FC00001D903200AE782486C300068C0F3400072
:100FD0000028F1D014E000207F490860FFF706FDEB
:100FE000054606E0FFF702FD401B022801D9032059
:100FF000F4E677486C300068C0F340000028F1D177
:10100000207800F00400042870D1002770483830A0
:10101000006800F0805090B900BF002000906C483C
:101020003830006840F0805069493831086008461F
:10103000006800F08050009000BF00BF01276748A3
:10104000006800F48070B0B96448006840F48070B3
:1010500062490860FFF7CAFC054606E0FFF7C6FCD8
:10106000401B022801D90320B8E65C48006800F460
:1010700080700028F2D000BFA068012808D1544831
:101080006830006840F001005149683108601DE097
:10109000A06805280DD14E486830006840F0040073
:1010A0004B49683108600846006840F0010008605C
:1010B0000CE047486830006820F00100444968317E
:1010C00008600846006820F00400086000BFA068BF
:1010D000A8B1FFF78BFC054609E0FFF787FC401B32
:1010E00041F28831884202D9032077E626E0384869
:1010F00068300068C0F340000028EED013E0FFF72E
:1011000075FC054608E0FFF771FC401B41F2883191
:10111000884201D9032061E62D4868300068C0F399
:1011200040000028EFD1012F07D12948383000684E
:1011300020F0805026493831086000BFA06900289F
:1011400045D02348006800F00C0008285DD0A06955
:10115000022845D100201F490866FFF747FC0546D5
:1011600006E0FFF743FC401B022801D9032035E6C7
:10117000174808380068C0F340600028F1D1D4E96E
:1011800007010843616A40EA81110122A06AC2EBAB
:10119000500041EA00412C20005D41EA00600C490A
:1011A000091F086001200B490866FFF71FFC054670
:1011B00006E0FFF71BFC401B022801D903200DE6C7
:1011C000034808380068C0F340600028F1D049E0C7
:1011D0000838024000004742800E4742007000403D
:1011E000002021490866FFF701FC054606E0FFF7ED
:1011F000FDFB401B022801D90320EFE51B480068D6
:10120000C0F340600028F2D12CE0A069012800D191
:10121000E4E51648001D0668A069012820D006F400
:101220008001E06981421BD106F03F01206A8142C2
:1012300016D147F6C0703040616AB0EB811F0FD104
:1012400006F440310122A06AC2EB5000B1EB004F1E
:1012500006D106F070612C20005DB1EB006F01D06B
:101260000120BBE50020B9E50000474200380240FC
:1012700070B504460E4615460CB9012070BD94F8B1
:10128000490028B9002084F84800204600F01CF8E6
:1012900004F108012068FFF7E1F93146A2682068EF
:1012A000FFF70AFA2946236BD4E90102FFF7B2F9E6
:1012B000A168206850F8210040F00100A268216870
:1012C00041F822000020D9E710B586B0044600BFDF
:1012D000002000902248006840F00100204908608A
:1012E0000846006800F00100009000BF00BF00BF8A
:1012F000002000901A480838006840F0080018499B
:10130000083908600846006800F00800009000BF37
:1013100000BF00BF002000900846006840F01000A9
:1013200008600846006800F01000009000BF00BF91
:101330004CF20370019002200290012003900220E1
:1013400004900C20059001A90648FFF741FA4FF6DA
:101350008070019001A90448FFF73AFA06B010BD69
:1013600038380240000C02400010024070B50446BC
:101370002546681EB0F1807F01D301200FE0681E72
:101380004FF0E02148610F214FF0FF3000F068FC82
:1013900000204FF0E021886107200861002070BD27
:1013A000704770472DE9F84F0446206805682068AB
:1013B000C668206847694FF00009CA4605F00F0962
:1013C000B9F1000F0AD105F0200038B106F0200075
:1013D00020B1204600F069FABDE8F88FB9F1000F9E
:1013E00072D007F0010018B906F4907000286BD095
:1013F00005F0010030B106F4807018B1206C40F0A7
:101400000100206405F0040030B107F0010018B1BC
:10141000206C40F00200206405F0020030B107F0BB
:10142000010018B1206C40F00400206405F00800B1
:1014300048B106F0200010B907F0010018B1206C87
:1014400040F008002064206C70B305F0200028B143
:1014500006F0200010B1204600F027FA206840690D
:10146000C0F3801A206C00F0080010B9BAF1000F28
:1014700023D0204600F0EEF92068406900F04000DB
:10148000402816D12068406920F04000216848615A
:10149000A06B50B15648A16B0865A06BFFF783F9AC
:1014A00010B1A06B016D88470CE02046FFF779FF73
:1014B00008E02046FFF775FF04E02046FFF771FFC4
:1014C0000020206488E7FFE7206B012879D105F030
:1014D0001000002875D006F01000002871D000BF61
:1014E000002000902068006800902068406800900C
:1014F00000BF00BF2068406900F04000402839D19B
:10150000A06B006840681FFA80F8B8F1000F30D077
:10151000A08D40452DDDA4F82E80A06BC069B0F5EC
:10152000807F1FD02068C06820F480702168C86068
:101530002068406920F00100216848612068406906
:1015400020F0400021684861202084F83E000020FF
:1015500020632068C06820F010002168C860A06B7C
:10156000FFF7CCF8A08DE28D801A81B22046FFF7FC
:1015700017FF31E7A08DE18D401A1FFA80F8E08D4A
:10158000E8B1B8F1000F1AD02068C06820F490705C
:101590002168C8602068406920F001002168486126
:1015A000202084F83E00002020632068C06820F0DE
:1015B00010002168C86041462046FFF7F1FE0BE7A6
:1015C000FFE705F0800030B106F0800018B120463A
:1015D00000F003FB00E705F0400030B106F04000EA
:1015E00018B1204600F051F9F6E600BFF4E600001D
:1015F0004118000810B504460CB9012010BDA069BF
:1016000000B100E000BF94F83D0028B9002084F844
:101610003C00204600F028F8242084F83D00206893
:10162000C06820F400502168C860204600F09CF992
:101630002068006920F490402168086120684069B2
:1016400020F02A00216848612068C06840F40050FA
:101650002168C86000202064202084F83D0084F8C0
:101660003E000020CAE7000010B586B004462E49AF
:101670002068884255D100BF00BF002000902B4851
:10168000006840F01000294908600846006800F032
:101690001000009000BF00BF00BF00BF00BF0020CF
:1016A000009022481438006840F001001F491439A6
:1016B00008600846006800F00100009000BF00BF0D
:1016C00000BF00BF00BF002000900846006840F047
:1016D000010008600846006800F00100009000BFAB
:1016E00000BF00BF48150190022002900120039026
:1016F000022004900720059001A90D48FFF768F823
:101700004FF4806001900720059001A90848FFF779
:101710005FF82520FFF7BBF9032211462520FFF7CC
:10172000C6F906B010BD0000001001404438024068
:101730000000024070B504460D46164694F83E007F
:10174000202816D105B10EB9012070BD00BF94F854
:101750003C00012801D10220F7E7012084F83C0079
:1017600000BF0020206332462946204600F012FACE
:10177000EBE70220E9E7000010B5044620492068A5
:1017800088423BD11F48008800F4004088BB1D48B8
:10179000008800F4804070B11B4800780A2803D00C
:1017A00000201849088024E01648008840F40040D2
:1017B000144908801DE0144800780D2806D111480E
:1017C000008840F480400F49088012E00E480078FD
:1017D0000C490988C1F30D010C4A5054094800888E
:1017E000401C0849088008460088C72801DD002001
:1017F0000880012204490648FFF79CFF10BD000045
:10180000001001400C0000200E0000201C000020F1
:10181000E4000020704700BFFEE700BFFEE770470E
:101820007047704710B5FFF7E7F810BD0348006830
:1018300040F47000014908607047000088ED00E046
:1018400070B50546AC6B0020E085E0842046FFF7CC
:10185000A8FD70BD0168C96821F490710268D1606B
:101860000168496921F0010102685161016B012998
:1018700005D10168C96821F010010268D1602021FA
:1018800080F83E1000210163704710B504462068BF
:10189000C06820F040002168C860202084F83D0026
:1018A0002046FFF7B7FF002010BD70B5044694F83E
:1018B0003E00222856D1A068B0F5805F0CD1206987
:1018C00050B90025A66A20684068C0F3080030803F
:1018D000A06A801CA06215E0A56A0026A068B0F589
:1018E000805F03D0A06828B9206918B920684068D3
:1018F000287004E02068406800F07F002870A06A2B
:10190000401CA062E08D401E80B2E08540BB206894
:10191000C06820F020002168C8602068C06820F4FA
:1019200080702168C8602068406920F0010021684B
:101930004861202084F83E00206B01280AD12068ED
:10194000C06820F010002168C860A18D2046FFF714
:1019500027FD02E02046FFF70FFF0020206370BD47
:101960000020FCE70220FAE72DE9F84F0446206842
:10197000006920F44050E16808432168086121694A
:10198000A068084361690843E16908430090206842
:10199000C06849F20C618843009908432168C86017
:1019A0002068406920F44070A169084321684861BB
:1019B00076492068884203D075492068884203D15F
:1019C000FFF7A0F9814602E0FFF78CF98146E06954
:1019D000B0F5004F6CD102206168A0FB01500346B6
:1019E0001920A9FB007001462A463846FEF747FC3D
:1019F0006421B0FBF1F04FEA001A02206168A0FBFD
:101A000001510B461920A9FB00712A463846FEF702
:101A100036FC834602206168A0FB01500346192072
:101A2000A9FB00712A463846FEF729FC6421B0FB69
:101A3000F1F000EBC00101EB0010ABEB80003221B4
:101A400001EBC0006421B0FBF1F000F0F8000AEBFC
:101A5000400A02206168A0FB015003461920A9FB3F
:101A6000007001462A463846FEF709FC83460220EC
:101A70006168A0FB015003461920A9FB00712A46AA
:101A80003846FEF7FCFB6421B0FBF1F000EBC0012F
:101A900001EB0010ABEB8000322101EBC0006421B0
:101AA000B0FBF1F000F007005044216888606AE064
:101AB00004206168A0FB015003461920A9FB0070B7
:101AC00001462A463846FEF7DAFB82460420616862
:101AD000A0FB015003461920A9FB007001462A46CD
:101AE0003846FEF7CCFB6421B0FBF1F000EBC001FF
:101AF00001EB0010AAEB8000322101EB0010642101
:101B0000B0FBF1F000F0F00A04206168A0FB017066
:101B100003461920A9FB00513A462846FEF7AFFBC1
:101B20006421B0FBF1F00AEB001A04206168A0FB0D
:101B300001510B461920A9FB00712A463846FEF7D1
:101B40009EFB834604206168A0FB015003461920D8
:101B5000A9FB007001462A463846FEF790FB642137
:101B6000B0FBF1F000EBC00101EB0010ABEB80002B
:101B7000322101EB00106421B0FBF1F000F00F0006
:101B8000504421688860BDE8F88F000000100140D3
:101B90000014014010B5034699629A85DA85002049
:101BA0001864222083F83E0000BF002083F83C0028
:101BB00000BF1868C06840F480701C68E060186856
:101BC000406940F001001C6860611868C06840F01E
:101BD00020001C68E060002010BD014691F83D0027
:101BE000212828D18868B0F5805F0BD1086948B9F1
:101BF0000A6A1088C0F308000B685860086A801CE5
:101C0000086205E00B6A581C086218780B68586077
:101C1000C88C401E80B2C88458B90868C06820F0DB
:101C200080000B68D8600868C06840F040000B680E
:101C3000D860002070470220FCE7000010B5024881
:101C4000FFF7B0FB10BD0000E400002000BFFEE77E
:101C500002480068C0F30220704700000CED00E06D
:101C600010B5002804DB0A07130E054A135406E0DA
:101C70000A07140E034A00F00F031B1FD45410BDB3
:101C800000E400E018ED00E000BF70470149086083
:101C9000704700000400002010B504464FF47A712C
:101CA00004FB01F000F002F810BD000070B503461F
:101CB00000224FF0E02675690D4E366803FB06F4EE
:101CC0004FF0E026B16910E04FF0E026B06988429D
:101CD0000BD0884202D20E1A324402E02E1A0E4471
:101CE00032440146A24200D300E0EDE700BF70BDE0
:101CF0000400002000BF054A126802F04002002ADA
:101D0000F9D0C2B2014B5A60704700000010014088
:101D100000B52A20084908812B2048812C20C88042
:101D20004FF4A07008804FF4F070488000213620F6
:101D300001F0F2F900BD0000280100202DE9F0417A
:101D400004460D4616461F46DDF818803B463246CF
:101D50002946204601F022F901F00CF9002203E0A7
:101D6000404601F0CDF9521C281B401CB91B491CF0
:101D700048439042F4D8BDE8F08100BF011EA0F1B5
:101D80000100FBD17047000000B587B000BF00BF65
:101D9000002001902048006840F020001E490860A3
:101DA0000846006800F02000019000BF00BF00BF9F
:101DB00000BF00BF002001900846006840F02000EE
:101DC00008600846006800F02000019000BF00BFD6
:101DD00000BF481502900120039004900220059056
:101DE00002A90E48FEF7F4FC4FF48060029002A9AD
:101DF0000A48FEF7EDFC00BF012251020748FEF73A
:101E0000E9FD00BF00BF012291020448FEF7E2FD98
:101E100000BF07B000BD000030380240001402408F
:101E200000BFFEF7F5FD0723022208214FF4A8703A
:101E300001F0DCF8A820FFF729FF4FF4E13001F0B2
:101E400043F9FFF7A1FF00F007F803E04FF47A70C1
:101E5000FFF722FFFAE7000000B595B000BF0020B1
:101E600001907A48006840F001007849086008460F
:101E7000006800F00100019000BF00BF00BF00201B
:101E8000019072480838006840F002006F49083934
:101E900008600846006800F00200019000BF00BF23
:101EA00000BF002001900846006840F0080008606C
:101EB0000846006800F00800019000BF00BF00BFA6
:101EC000002001900846006840F0100008600846B5
:101ED000006800F01000019000BF00BF00BF0020AC
:101EE00001900846006840F020000860084600683D
:101EF00000F02000019000BF00BF00BF0020019053
:101F00000846006840F0400008600846006800F09D
:101F10004000019000BF00BF4CF2337010900220CF
:101F2000119001201290022013900C20149010A9FF
:101F30004748FEF74DFC4FF68070109010A94548B9
:101F4000FEF746FC4FF48050109010A94248FEF76F
:101F50003FFC10A94148FEF73BFC4FF400401090B5
:101F60000120119010A93E48FEF732FC4FF02040AE
:101F70003C4908603C484860062088600021394898
:101F8000C1601021416109028162890001630F2053
:101F9000099000200A903C200B9000200F9009200F
:101FA000029000200390092004900020089002AACB
:101FB00009A92C48FFF75CF93220FFF76DFE0122DA
:101FC000D1032748FEF706FDD42001F0AFF800F05A
:101FD000D9FF2649888000F0D5FF2449888000F089
:101FE000D1FF22498880084680884FF6FF7101EAB8
:101FF00000201E49888000F0C5FF1C4989880843DD
:102000001A49888000F03CF81848818818A0FEF72B
:10201000ADF91648808845F21031884209D1012077
:10202000029004900F490B6B8A68486802A9FEF77A
:10203000F1FAFFF76DFE4FF6E070C8230022194653
:1020400000901046FFF77AFE15B000BD3838024008
:10205000000C024000100240001402400018024030
:102060000004024034010020040100A028010020E7
:102070006C63642069642069732025780A0000007D
:1020800010B5ED2001F052F8012001F039F8FE20E2
:1020900001F036F8EE2001F049F8DE2001F030F8CA
:1020A000212001F02DF8F12001F040F8012001F08D
:1020B00027F8DF2001F03AF8102001F021F8C420C1
:1020C00001F034F88F2001F01BF8C62001F02EF843
:1020D000002001F015F8E22001F012F8E22001F0F2
:1020E0000FF8E22001F00CF8BF2001F01FF8AA2041
:1020F00001F006F8B02001F019F80D2001F000F809
:10210000002000F0FDFF0D2000F0FAFF002000F09D
:10211000F7FF112000F0F4FF002000F0F1FF19207C
:1021200000F0EEFF002000F0EBFF212000F0E8FFC0
:10213000002000F0E5FF2D2000F0E2FF002000F07D
:10214000DFFF3D2000F0DCFF002000F0D9FF5D2024
:1021500000F0D6FF002000F0D3FF5D2000F0D0FF9C
:10216000002000F0CDFFB12000F0E0FF802000F063
:10217000C7FF002000F0C4FF8B2000F0C1FF00204B
:1021800000F0BEFF962000F0BBFF002000F0B8FF7B
:10219000B22000F0CBFF002000F0B2FF002000F0E2
:1021A000AFFF022000F0ACFF002000F0A9FF0320E9
:1021B00000F0A6FF002000F0A3FFB32000F0B6FF60
:1021C000002000F09DFF002000F09AFF002000F0AA
:1021D00097FF002000F094FF002000F091FF002006
:1021E00000F08EFF002000F08BFF002000F088FF41
:1021F000002000F085FF002000F082FF002000F0AA
:102200007FFF002000F07CFF002000F079FF00201D
:1022100000F076FF002000F073FF002000F070FF58
:10222000002000F06DFF002000F06AFF002000F0A9
:1022300067FF002000F064FF002000F061FF002035
:1022400000F05EFF002000F05BFF002000F058FF70
:10225000B42000F06BFF8B2000F052FF002000F054
:102260004FFF962000F04CFF002000F049FFA12016
:1022700000F046FF002000F043FFB52000F056FFBD
:10228000022000F03DFF002000F03AFF032000F0A4
:1022900037FF002000F034FF042000F031FF002061
:1022A00000F02EFFB62000F041FF002000F028FFD4
:1022B000002000F025FFB72000F038FF002000F0DC
:1022C0001FFF002000F01CFF3F2000F019FF00203E
:1022D00000F016FF5E2000F013FF002000F010FF5A
:1022E000642000F00DFF002000F00AFF8C2000F0B9
:1022F00007FF002000F004FFAC2000F001FF0020E9
:1023000000F0FEFEDC2000F0FBFE002000F0F8FEF6
:10231000702000F0F5FE002000F0F2FE902000F0AA
:10232000EFFE002000F0ECFEEB2000F0E9FE0020C4
:1023300000F0E6FEDC2000F0E3FE002000F0E0FE0E
:10234000B82000F0F3FE002000F0DAFE002000F0DC
:10235000D7FE002000F0D4FE002000F0D1FE0020C7
:1023600000F0CEFE002000F0CBFE002000F0C8FE02
:10237000002000F0C5FEBA2000F0D8FE242000F0B6
:10238000BFFE002000F0BCFE002000F0B9FE0020DF
:1023900000F0B6FEC12000F0C9FE202000F0B0FE23
:1023A000002000F0ADFE542000F0AAFE002000F056
:1023B000A7FEFF2000F0A4FE002000F0A1FEC22036
:1023C00000F0B4FE0A2000F09BFE002000F098FE12
:1023D000042000F095FE002000F092FEC32000F0E3
:1023E000A5FE3C2000F08CFE002000F089FE3A2083
:1023F00000F086FE002000F083FE392000F080FE11
:10240000002000F07DFE372000F07AFE002000F072
:1024100077FE3C2000F074FE002000F071FE3620B4
:1024200000F06EFE002000F06BFE322000F068FE2F
:10243000002000F065FE2F2000F062FE002000F07A
:102440005FFE2C2000F05CFE002000F059FE2920E9
:1024500000F056FE002000F053FE262000F050FE53
:10246000002000F04DFE242000F04AFE002000F085
:1024700047FE242000F044FE002000F041FE23200F
:1024800000F03EFE002000F03BFE3C2000F038FE55
:10249000002000F035FE362000F032FE002000F073
:1024A0002FFE322000F02CFE002000F029FE2F200D
:1024B00000F026FE002000F023FE2C2000F020FE7D
:1024C000002000F01DFE292000F01AFE002000F080
:1024D00017FE262000F014FE002000F011FE24203C
:1024E00000F00EFE002000F00BFE242000F008FE9D
:1024F000002000F005FE232000F002FE002000F086
:10250000FFFDC42000F012FE622000F0F9FD002063
:1025100000F0F6FD052000F0F3FD002000F0F0FDD6
:10252000842000F0EDFD002000F0EAFDF02000F036
:10253000E7FD002000F0E4FD182000F0E1FD0020A0
:1025400000F0DEFDA42000F0DBFD002000F0D8FD4F
:10255000182000F0D5FD002000F0D2FD502000F042
:10256000CFFD002000F0CCFD0C2000F0C9FD0020C4
:1025700000F0C6FD172000F0C3FD002000F0C0FDF4
:10258000952000F0BDFD002000F0BAFDF32000F022
:10259000B7FD002000F0B4FDE62000F0B1FD002002
:1025A00000F0AEFDC52000F0C1FD322000F0A8FD16
:1025B000002000F0A5FD442000F0A2FD002000F066
:1025C0009FFD652000F09CFD002000F099FD762025
:1025D00000F096FD002000F093FD882000F090FDB3
:1025E000002000F08DFDC62000F0A0FD202000F0AE
:1025F00087FD002000F084FD172000F081FD002001
:1026000000F07EFD012000F07BFD002000F078FD51
:10261000C72000F08BFD002000F072FD002000F0CC
:102620006FFD002000F06CFD002000F069FDC82067
:1026300000F07CFD002000F063FD002000F060FD54
:10264000002000F05DFD002000F05AFDC92000F0E0
:102650006DFD002000F054FD002000F051FD002031
:1026600000F04EFD002000F04BFD002000F048FD82
:10267000002000F045FD002000F042FD002000F0A9
:102680003FFD002000F03CFD002000F039FD00205F
:1026900000F036FD002000F033FD002000F030FD9A
:1026A000002000F02DFD002000F02AFD002000F0A9
:1026B00027FDE02000F03AFD162000F021FD00206B
:1026C00000F01EFD1C2000F01BFD002000F018FD96
:1026D000212000F015FD002000F012FD362000F052
:1026E0000FFD002000F00CFD462000F009FD002049
:1026F00000F006FD522000F003FD002000F000FD78
:10270000642000F0FDFC002000F0FAFC7A2000F0CC
:10271000F7FC002000F0F4FC8B2000F0F1FC00201E
:1027200000F0EEFC992000F0EBFC002000F0E8FC4B
:10273000A82000F0E5FC002000F0E2FCB92000F049
:10274000DFFC002000F0DCFCC42000F0D9FC0020FD
:1027500000F0D6FCCA2000F0D3FC002000F0D0FC32
:10276000D22000F0CDFC002000F0CAFCD92000F0FF
:10277000C7FC002000F0C4FCE02000F0C1FC0020F9
:1027800000F0BEFCF32000F0BBFC002000F0B8FC21
:10279000E12000F0CBFC162000F0B2FC002000F09D
:1027A000AFFC1C2000F0ACFC002000F0A9FC2220B3
:1027B00000F0A6FC002000F0A3FC362000F0A0FCF6
:1027C000002000F09DFC452000F09AFC002000F065
:1027D00097FC522000F094FC002000F091FC642053
:1027E00000F08EFC002000F08BFC7A2000F088FCCA
:1027F000002000F085FC8B2000F082FC002000F01F
:102800007FFC992000F07CFC002000F079FCA820DF
:1028100000F076FC002000F073FCB92000F070FCA2
:10282000002000F06DFCC42000F06AFC002000F0E5
:1028300067FCCA2000F064FC002000F061FCD2209C
:1028400000F05EFC002000F05BFCD82000F058FC9B
:10285000002000F055FCE02000F052FC002000F0C9
:102860004FFCF32000F04CFC002000F049FCE2207B
:1028700000F05CFC052000F043FC002000F040FC70
:102880000B2000F03DFC002000F03AFC1B2000F083
:1028900037FC002000F034FC342000F031FC002034
:1028A00000F02EFC442000F02BFC002000F028FC5F
:1028B0004F2000F025FC002000F022FC612000F0F9
:1028C0001FFC002000F01CFC792000F019FC002007
:1028D00000F016FC882000F013FC002000F010FC33
:1028E000972000F00DFC002000F00AFCA62000F06C
:1028F00007FC002000F004FCB72000F001FC0020E1
:1029000000F0FEFBC22000F0FBFB002000F0F8FB13
:10291000C72000F0F5FB002000F0F2FBD12000F012
:10292000EFFB002000F0ECFBD62000F0E9FB0020DC
:1029300000F0E6FBDD2000F0E3FB002000F0E0FB10
:10294000F32000F0DDFB002000F0DAFBE32000F0D4
:10295000EDFB052000F0D4FB002000F0D1FB0A20A5
:1029600000F0CEFB002000F0CBFB1C2000F0C8FBE9
:10297000002000F0C5FB332000F0C2FB002000F077
:10298000BFFB442000F0BCFB002000F0B9FB50204E
:1029900000F0B6FB002000F0B3FB622000F0B0FBBB
:1029A000002000F0ADFB782000F0AAFB002000F032
:1029B000A7FB882000F0A4FB002000F0A1FB9720DB
:1029C00000F09EFB002000F09BFBA62000F098FB8F
:1029D000002000F095FBB72000F092FB002000F0F3
:1029E0008FFBC22000F08CFB002000F089FBC72089
:1029F00000F086FB002000F083FBD12000F080FB7C
:102A0000002000F07DFBD52000F07AFB002000F0D4
:102A100077FBDD2000F074FB002000F071FBF32059
:102A200000F06EFB002000F06BFBE42000F07EFB6A
:102A3000012000F065FB002000F062FB012000F0A7
:102A40005FFB002000F05CFB022000F059FB00203F
:102A500000F056FB2A2000F053FB002000F050FB52
:102A60003C2000F04DFB002000F04AFB4B2000F022
:102A700047FB002000F044FB5D2000F041FB0020FC
:102A800000F03EFB742000F03BFB002000F038FB20
:102A9000842000F035FB002000F032FB932000F092
:102AA0002FFB002000F02CFBA22000F029FB0020CF
:102AB00000F026FBB32000F023FB002000F020FBF9
:102AC000BE2000F01DFB002000F01AFBC42000F027
:102AD00017FB002000F014FBCD2000F011FB0020BC
:102AE00000F00EFBD32000F00BFB002000F008FBF1
:102AF000DD2000F005FB002000F002FBF32000F0D9
:102B0000FFFA002000F0FCFAE52000F00FFB0020A7
:102B100000F0F6FA002000F0F3FA002000F0F0FADE
:102B2000002000F0EDFA022000F0EAFA002000F0A8
:102B3000E7FA292000F0E4FA002000F0E1FA3C2056
:102B400000F0DEFA002000F0DBFA4B2000F0D8FAAB
:102B5000002000F0D5FA5D2000F0D2FA002000F04D
:102B6000CFFA742000F0CCFA002000F0C9FA8420DB
:102B700000F0C6FA002000F0C3FA932000F0C0FA7B
:102B8000002000F0BDFAA22000F0BAFA002000F008
:102B9000B7FAB32000F0B4FA002000F0B1FABE207A
:102BA00000F0AEFA002000F0ABFAC42000F0A8FA62
:102BB000002000F0A5FACD2000F0A2FA002000F0DD
:102BC0009FFAD32000F09CFA002000F099FADC2054
:102BD00000F096FA002000F093FAF32000F090FA4B
:102BE000002000F08DFAE62000F0A0FA112000F09D
:102BF00087FA002000F084FA342000F081FA0020E7
:102C000000F07EFA562000F07BFA002000F078FAFF
:102C1000762000F075FA002000F072FA772000F0BC
:102C20006FFA002000F06CFA662000F069FA0020CC
:102C300000F066FA882000F063FA002000F060FAE5
:102C4000992000F05DFA002000F05AFABB2000F055
:102C500057FA002000F054FA992000F051FA0020B1
:102C600000F04EFA662000F04BFA002000F048FA1F
:102C7000552000F045FA002000F042FA552000F0FF
:102C80003FFA002000F03CFA452000F039FA00201D
:102C900000F036FA432000F033FA002000F030FA5A
:102CA000442000F02DFA002000F02AFAE72000F07E
:102CB0003DFA322000F024FA002000F021FA5520DD
:102CC00000F01EFA002000F01BFA762000F018FA3F
:102CD000002000F015FA662000F012FA002000F043
:102CE0000FFA672000F00CFA002000F009FA6720C4
:102CF00000F006FA002000F003FA872000F000FA46
:102D0000002000F0FDF9992000F0FAF9002000F011
:102D1000F7F9BB2000F0F4F9002000F0F1F9992058
:102D200000F0EEF9002000F0EBF9772000F0E8F970
:102D3000002000F0E5F9442000F0E2F9002000F066
:102D4000DFF9562000F0DCF9002000F0D9F923204B
:102D500000F0D6F9002000F0D3F9332000F0D0F9CC
:102D6000002000F0CDF9452000F0CAF9002000F065
:102D7000C7F9E82000F0DAF9002000F0C1F90020DE
:102D800000F0BEF9992000F0BBF9002000F0B8F97E
:102D9000872000F0B5F9002000F0B2F9882000F09B
:102DA000AFF9002000F0ACF9772000F0A9F900207D
:102DB00000F0A6F9662000F0A3F9002000F0A0F9C9
:102DC000882000F09DF9002000F09AF9AA2000F078
:102DD00097F9002000F094F9BB2000F091F9002051
:102DE00000F08EF9992000F08BF9002000F088F9AE
:102DF000662000F085F9002000F082F9552000F0EF
:102E00007FF9002000F07CF9552000F079F90020CE
:102E100000F076F9442000F073F9002000F070F91A
:102E2000442000F06DF9002000F06AF9552000F010
:102E300067F9002000F064F9E92000F077F9AA2092
:102E400000F05EF9002000F05BF9002000F058F976
:102E5000002000F055F9002000F068F9AA2000F0E9
:102E60004FF9CF2000F062F9002000F049F900206E
:102E700000F046F9002000F043F9002000F040F98E
:102E8000002000F03DF9002000F03AF9002000F0A9
:102E900037F9002000F034F9002000F031F900206B
:102EA00000F02EF9002000F02BF9002000F028F9A6
:102EB000002000F025F9002000F022F9002000F0A9
:102EC0001FF9002000F01CF9002000F019F9F02093
:102ED00000F02CF9002000F013F9502000F010F958
:102EE000002000F00DF9002000F00AF9002000F0A9
:102EF00007F9F32000F01AF9002000F001F9F92099
:102F000000F014F9062000F0FBF8102000F0F8F8AB
:102F1000292000F0F5F8002000F0F2F83A2000F047
:102F200005F9552000F0ECF8112000F0FFF86420BE
:102F3000FEF7B2FE292000F0F9F8352000F0F6F88F
:102F4000002000F0DDF8512000F0F0F8FF2000F044
:102F5000D7F8532000F0EAF82C2000F0D1F85520E3
:102F600000F0E4F8822000F0CBF82C2000F0DEF82E
:102F700010BD000000B50249C88800F0D7F800BDB8
:102F80002801002008B50220FEF7F7FE024800885D
:102F90000090BDF8000008BD8000006C70B50646CA
:102FA0000C461D461049088900F0C0F8301200F0A8
:102FB000A7F8304600F0A4F8201200F0A1F820464F
:102FC00000F09EF80849488900F0B0F8101200F0AF
:102FD00097F8104600F094F8281200F091F828466F
:102FE00000F08EF870BD0000280100202DE9F041AE
:102FF00092B080460C4615461E460027302106A892
:10300000FDF720FA142101A8FDF71CFA00BF0020EB
:1030100000902A48006840F080502849086008461F
:10302000006800F08050009000BF00BF00BF00208B
:1030300000902348006840F4804021490860084619
:10304000006800F48040009000BF00BF012006909F
:103050000004079002200C9041050D91CDF83C80B2
:103060000E941095119606A8FDF7B4FE07461FB101
:10307000012012B0BDE8F0810F20019002200290E3
:10308000002003904FF4A05004904FF4805005901E
:10309000052101A8FDF75EFD07460FB10120E8E715
:1030A000FDF79EFC41F20101884205D10548006808
:1030B00040F48070034908600020DAE7403802409D
:1030C00000700040003C024010B5044609480A491F
:1030D00008600846446000218160C160016181612F
:1030E0000C214161FEF786FA012204490248FEF7ED
:1030F00021FB10BD00100140E40000200E00002064
:1031000001B5BDF800000090BDF80000014908803D
:1031100008BD00008000006C034A10804FF0D842C8
:10312000A2F88010704700007E00006C01B5BDF869
:1031300000000090BDF800000149088008BD0000B3
:103140007E00006C4FF04070E1EE100A7047000006
:103150000000000000000102030406070809000047
:103160000000010203043031323334353637383948
:1031700041424344454640305800303132333435C3
:103180003637383961626364656640307800000024
:10319000B0310008000000201C000000C40100083D
:1031A000CC3100081C000020CC050000E001000824
:1031B0000024F400000000000000000000000000F7
:0C31C000000000001000000001000000F2
:040000050800018965
:00000001FF
